:100000000C9486040C94AE040C94AE040C94AE04D0
:100010000C94AE040C94AE040C94AE040C94AE0498
:100020000C94AE040C94AE040C94FC0B0C946B0C6E
:100030000C94AE040C94AE040C94AE040C94AE0478
:100040000C94AE040C94AE040C94AE040C94AE0468
:100050000C94AE040C94AE040C94AE040C949D0E5F
:100060000C94AE040C94AE040C94AE040C94AE0448
:100070000C94AE040C94AE040C94AE040C94AE0438
:100080000C94AE040C94AE040C94AE040C94AE0428
:100090000C94AE040C94AE040C94AE040C94AE0418
:1000A0000C94AE040C94AE040C94AE0405A84CCD94
:1000B000B2D44EB93836A9020C50B9918688083CA2
:1000C000A6AAAA2ABE000000803F00000000003E51
:1000D0005B4F5B3E3E6B4F6B3E1C3E7C3E1C183CB8
:1000E0007E3C181C577D571C1C5E7F5E1C00183C14
:1000F0001800FFE7C3E7FF0018241800FFE7DBE75D
:10010000FF30483A060E2629792926407F05050743
:10011000407F05253F5A3CE73C5A7F3E1C1C08089F
:100120001C1C3E7F14227F22145F5F005F5F060964
:100130007F017F006689956A606060606094A2FFBD
:10014000A29408047E040810207E201008082A1CAF
:1001500008081C2A08081E101010100C1E0C1E0C7B
:1001600030383E3830060E3E0E060000000000001B
:10017000005F00000007000700147F147F14242A8A
:100180007F2A12231308646236495620500008075C
:100190000300001C2241000041221C002A1C7F1C7D
:1001A0002A08083E0808008070300008080808087F
:1001B000000060600020100804023E5149453E00E6
:1001C000427F400072494949462141494D33181444
:1001D000127F1027454545393C4A49493141211193
:1001E00009073649494936464949291E0000140085
:1001F00000004034000000081422411414141414A8
:10020000004122140802015909063E415D594E7C05
:100210001211127C7F494949363E414141227F41BA
:1002200041413E7F494949417F090909013E414118
:1002300051737F0808087F00417F41002040413F03
:10024000017F081422417F404040407F021C027F12
:100250007F0408107F3E4141413E7F090909063E67
:100260004151215E7F091929462649494932030136
:100270007F01033F4040403F1F2040201F3F403848
:10028000403F631408146303047804036159494D23
:1002900043007F4141410204081020004141417F59
:1002A00004020102044040404040000307080020CF
:1002B000545478407F2844443838444444283844CF
:1002C00044287F385454541800087E090218A4A406
:1002D0009C787F0804047800447D40002040403D25
:1002E000007F1028440000417F40007C047804789F
:1002F0007C080404783844444438FC182424181832
:10030000242418FC7C08040408485454542404048D
:100310003F44243C4040207C1C2040201C3C40307A
:10032000403C44281028444C9090907C4464544CA9
:100330004400083641000000770000004136080004
:1003400002010204023C2623263C1EA1A161123AAE
:100350004040207A385454555921555579412154FB
:10036000547841215554784020545579400C1E5200
:1003700072123955555559395454545939555454A4
:10038000580000457C410002457D420001457C400B
:10039000F0292429F0F0282528F07C545545002028
:1003A00054547C547C0A097F4932494949323248C5
:1003B000484832324A4848303A4141217A3A42402C
:1003C0002078009DA0A07D39444444393D40404000
:1003D0003D3C24FF2424487E4943662B2FFC2F2BD1
:1003E000FF0929F620C0887E090320545479410072
:1003F00000447D413048484A32384040227A007AF1
:100400000A0A727D0D19317D2629292F28262929CE
:10041000292630484D4020380808080808080808F0
:10042000382F10C8ACBA2F102834FA00007B000017
:1004300008142A142222142A14089500220095AACE
:10044000005500AAAA55AA55AA000000FF001010E6
:1004500010FF00141414FF001010FF00FF1010F024
:1004600010F0141414FC001414F700FF0000FF0037
:10047000FF1414F404FC141417101F10101F101F85
:100480001414141F00101010F0000000001F1010B2
:1004900010101F10101010F010000000FF101010AE
:1004A000101010101010FF10000000FF140000FFCB
:1004B00000FF00001F10170000FC04F414141710B4
:1004C000171414F404F40000FF00F71414141414A7
:1004D0001414F700F7141414171410101F101F141D
:1004E0001414F4141010F010F000001F101F00007E
:1004F000001F14000000FC140000F010F01010FFAA
:1005000010FF141414FF141010101F00000000F04E
:1005100010FFFFFFFFFFF0F0F0F0F0FFFFFF000023
:10052000000000FFFF0F0F0F0F0F38444438447CCA
:100530002A2A3E147E02020606027E027E026355CD
:100540004941633844443C04407E201E2006027E1C
:10055000020299A5E7A5991C2A492A1C4C7201722E
:100560004C304A4D4D303048784830BC625A463D98
:100570003E494949007E0101017E2A2A2A2A2A444D
:10058000445F444440514A444040444A5140000082
:10059000FF0103E080FF000008086B6B083612368D
:1005A0002436060F090F060000181800000010106E
:1005B000003040FF0101001F01011E00191D17122C
:1005C000003C3C3C3C0000000000F0F89C8E87831F
:1005D000878E9CF8F00000FEFF0303030303070E61
:1005E000FCF80000FEFF0303030303070EFCF80002
:1005F00000FFFF00000000000000FFFF0000FEFF02
:100600008383838383C7EE7C380000F8FC0E0703E6
:100610000303070EFCF800003F7FE0C08080C0E0CD
:100620007F3FFFFF01010101010101FFFF0000FF0A
:10063000FF0C0C0C0C1C3E77E3C100007FFFC0C018
:10064000C0C0C0E0703F1F00001F3F70E0C0C0C0CE
:10065000E0703F1F00007FFFC1C1C1C1C1E3773E11
:100660001C00001F3F70E0C0C0C0E0703F1F0000D2
:1006700000000001FFFF01000000D5F08D14A1C8AB
:1006800081CFD9F1AF20007F3710972BAD23CC75E8
:10069000B2BAABBE7E08319D4E87ADED767466B7BB
:1006A000DBD1960E2A5C56AE535AC6992BADA34C9D
:1006B000E52A9BAD5C2AC4252BD7A954E71494B432
:1006C0005452D991A494DCA65372A9E476BBDD6E92
:1006D000B3F1EBF8EC769D4EA7B3DB25730A512EF0
:1006E000D2158ED2E9942AB7DD2AA9AC92CA6ED768
:1006F000A1329D4EA7236D5577755777AFA272AA89
:10070000BABAABBB5233A5D3E9743ADDABEAAEEE6D
:10071000EA7A573ADDB9D23A642D95544E392555C7
:10072000ED6AABA47352E97C7A2B955E2BE9945366
:1007300052BD5552496595545249E5945452C96D7C
:10074000E84AA7D3E9743A1D6D3A7429A9A493CA5B
:10075000CEE99C5476D5BFEAADB2EA56B77ABB8EE5
:10076000937EABEC3A9D5552D9753A9D4EA73B57B7
:100770005AA7D3A5BE4A55A5AA52D50E6DE974EC69
:1007800059E59C8E7FA9E44A39B7CD752BE79C7259
:100790004A65774E49A5436CA73AD7B94E4E964E57
:1007A00077AE761FE4A45CE53AD7B9546CCBCA7532
:1007B0004AEAF0B9DD8621A76C5CCA39259574AE8A
:1007C0009455764CA5D3D1A7D3E15429A794726E42
:1007D0001B96B23BA714537ABBDDA6436E3AE96C75
:1007E0003AC275E74A968E2DB5AAEEEAAEAE9443AC
:1007F00077369B8D32DFB99265E354AE725DD7B91F
:1008000054F0D156D9E96D644BA5F3A94F59659DB4
:10081000553A3CDBB5B24A3AE794734E39E5945306
:1008200032182A9DEB743A9D4E272BA5EAAE522A28
:100830009DACEEAA545577257B156E3B9D4EA7D3F4
:10084000E974B27297AC743AD7C94A557557B9D39F
:10085000C15D69659D755659679D754E669750F3E4
:100860003A9D75323AE53AD7B94E0797ADD3592735
:10087000835D011010E0E0C08040700C02625C40BB
:1008800040404040807F7F3F102020404040405506
:10089000555555350A080B000202020000090400F4
:1008A00000010202000005240010010524010101DD
:1008B00004240206052406000107058103100040F8
:1008C00009040100020A00000007050202400000BE
:1008D000070583024000000403090412010002EF2F
:1008E000020140412336800001010203014172648C
:1008F00075696E6F204C4C430041726475696E6F70
:10090000204C656F6E6172646F001A0F11241FBE58
:10091000CFEFDAE0DEBFCDBF11E0A0E0B1E0E6E569
:10092000FCE302C005900D92AE39B107D9F726E07D
:10093000AEE9B1E001C01D92AB35B207E1F714E0BA
:10094000C6E8D4E004C02197FE010E94231EC538EA
:10095000D107C9F70E94370F0C94291E0C94000090
:10096000E7E0F2E0A0E0B8E000800EBC8111012CCD
:100970001197A0FDFDCF0192B9F70DB408954F92E4
:100980005F927F928F929F92AF92BF92CF92DF92AF
:10099000EF92FF920F931F93CF93DF93DC012B0114
:1009A0003E2D672B21F1C22FD0E0CE018A0F9B1F75
:1009B0008038910514F020E82A1B91E0802F877081
:1009C00009F490E0069506950695090F063008F0A3
:1009D00005E0A058BE4F333009F4F9C0C0F43130FF
:1009E00009F464C00D5F83E0323009F49EC0DF91EA
:1009F000CF911F910F91FF90EF90DF90CF90BF901C
:100A0000AF909F908F907F905F904F9008953A3F66
:100A100041F10D5F83E03B3F51F7801741F3AD019A
:100A2000495F5D4FF12CE12CE21608F0B9C0F201EC
:100A3000EE0DFF1DE49118E0E19F5001112487FFA6
:100A4000A5C06A0130E8C30ED11C3B2D3095F601DC
:100A5000908193239083FFEFEF1AFF0A4F5F5F4F60
:100A6000E3CF0D5F83E0801709F4C1CFAD01495F8B
:100A70005D4FF12CE12CE21608F082C0F201EE0D80
:100A8000FF1DE49118E0E19F5001112487FF70C021
:100A90006A0130E8C30ED11CF60190819B29908336
:100AA000FFEFEF1AFF0A4F5F5F4FE5CF0D5F33E0B7
:100AB000031709F49CCFBD01695F7D4F7B01D12CE9
:100AC000C12CC21608F07BC0FA01EC0DFD1D84910B
:100AD00078E0879FC001112480959095F201EC0D7C
:100AE000FD1DE491F8E0EF9F4001112437FF5EC047
:100AF000570110E8A10EB11CF501808189238929D5
:100B00008083FFEFCF1ADF0A1FEFE11AF10AD9CF76
:100B1000FA01908197709A29908387301CF519C04B
:100B20008F5F4C0E5D1EA058BF4F801709F45FCF3A
:100B3000AD01495F5D4FF12CE12CE21688F7F2011F
:100B4000EE0DFF1DE49118E0E19F5001112487FF95
:100B5000DFCF6A0130E8C30ED11CF6019081987F87
:100B60009B299083FFEFEF1AFF0A4F5F5F4FE5CF9E
:100B7000FA0190819A29908387300CF091CF88CF29
:100B80008F5F4C0E5D1EA058BF4F6DCFFA01908154
:100B90003A2D30959323908387300CF05CCF51CF62
:100BA0008F5F4C0E5D1EA058BF4F37CFF7011081ED
:100BB00018231829108337300CF0A3CF99CF3F5F4B
:100BC0004C0E5D1E4C0F5D1FA058BF4F71CFE22F22
:100BD000F0E0A95FBD4F80E890E08E1B9F0BAE0157
:100BE0004E1B5F0B6A01CC0CDD1C722E832EC8E0FD
:100BF000422F502F632FF2018C0196019C2ECF9330
:100C0000DF93ED01EF96EF962296A590C590882090
:100C100059F0A99C5001C99C600167302CF4F88000
:100C2000D094FD20FB28F99266233AF0FC90C09402
:100C3000FC20FA28FD920C941E0611964A9529F77D
:100C40005A9551F0472D63951124E20FF11DA00F25
:100C5000B11DC00FD11DD9CFDF91CF911124C7CEC7
:100C6000FC0180910602882311F13FB7F89482E0DD
:100C70008093E9002091F200822F90E01816190667
:100C800014F481E090E0882339F0289844E64093FA
:100C900005024091F1004083222339F02091F200B7
:100CA000211103C02BE62093E8003FBF08958FEF8A
:100CB0009FEF08952FB7F89483E08093E900909117
:100CC000E800892F807295FF04C09091F20080E4C3
:100CD000891B2FBF08958091FD0181110DC082E015
:100CE0008093F90184E08093FA011092FC01109244
:100CF000FB0181E08093FD0189EF91E00895CF939E
:100D0000DF931F92CDB7DEB76983DC01ED91FC91D3
:100D10000280F381E02D41E050E0BE016F5F7F4F24
:100D200009950F90DF91CF91089583E08093E900BA
:100D30008091F200882319F08AE38093E8000895F7
:100D40000E945A0690E00895CF93DF931F92CDB78B
:100D5000DEB7FC018485958597FD08C02FEF3FEF36
:100D6000358724870F90DF91CF910895CE010196AA
:100D70000E943006019719F4898190E0F3CF8FEF3C
:100D80009FEFF0CF0F931F93CF93DF931F92CDB7B9
:100D9000DEB78C01FC018485958597FF0BC0CE01E1
:100DA00001960E943006019771F4898190E0F80164
:100DB00095878487F801848595850F90DF91CF9181
:100DC0001F910F9108958FEF9FEFF1CFFC01848564
:100DD000958597FD0BC09FB7F89482E08093E9005A
:100DE0008091F2009FBF90E0019608959FB7F8941C
:100DF00082E08093E9008091F2009FBF90E0089527
:100E00004091F3015091F4012091F1013091F201F0
:100E100042175307B4F49091E8009570E1F3909174
:100E2000E80092FD19C08093F1008091F301909148
:100E3000F40101968F739927892B19F48EEF809313
:100E4000E8008091F3019091F40101969093F401F0
:100E50008093F30181E0089580E00895DF92EF929E
:100E6000FF920F931F93CF93DF93D82E8A01EB014C
:100E70007B01E40EF51ECE15DF0559F0D7FE12C03A
:100E8000FE0184910E94000721968111F4CF0FEF9B
:100E90001FEFC801DF91CF911F910F91FF90EF904D
:100EA000DF9008958881EECF0F931F93CF93DF9348
:100EB0001F92CDB7DEB782E0898342E450E065E956
:100EC00078E080E80E942E070E946B06DC011296F3
:100ED0000D911C910115110589F0D801ED91FC913E
:100EE0000280F381E02DBE016F5F7F4FC80109953D
:100EF00097FD04C0F80100851185ECCF89810F9022
:100F0000DF91CF911F910F910895615030F02091A2
:100F1000F100FC0120830196F8CF289884E68093A5
:100F200005020895AF92BF92CF92DF92EF92FF92A7
:100F30000F931F93CF93DF936C017B018B01040F01
:100F4000151FEB015E01AE18BF08C017D10759F09D
:100F50006991D601ED91FC910190F081E02DC601DF
:100F60000995892B79F7C501DF91CF911F910F91D9
:100F7000FF90EF90DF90CF90BF90AF9008953FB774
:100F8000F8948091A7019091A801A091A901B09136
:100F9000AA0126B5A89B05C02F3F19F00196A11DF7
:100FA000B11D3FBFBA2FA92F982F8827BC01CD01B3
:100FB000620F711D811D911D42E0660F771F881F12
:100FC000991F4A95D1F708958F929F92AF92BF9241
:100FD000CF92DF92EF92FF926B017C010E94BF07DC
:100FE0004B015C01C114D104E104F104B9F00E9489
:100FF000BF07681979098A099B09683E7340810512
:10100000910580F321E0C21AD108E108F10888EEC9
:10101000880E83E0981EA11CB11CE4CFFF90EF90D6
:10102000DF90CF90BF90AF909F908F9008958F9258
:101030009F92AF92BF92CF92DF92EF92FF920F9367
:101040001F93CF93DF936C017B018A0180910D0187
:10105000882309F45CC080910602882309F457C0F4
:101060008091F80180FF05C08091E000826080934C
:10107000E000E801B12C8AEFA82E93E0892E2AE344
:10108000922E209711F4BB20D9F10E945A068111AB
:101090000AC0AA94AA20D9F161E070E080E090E053
:1010A0000E94E407EECF8C171D0611F00CF08C2F78
:1010B0009FB7F8948092E9002091E80025FD02C0D6
:1010C0009FBFDFCF282F30E0C21BD30BF701815029
:1010D00020F041914093F100FACFE20EF31EBB20C5
:1010E00021F09092E800B12CEBCF8091E80085FDD3
:1010F000E7CF9092E800BB24B394209709F3F3CF95
:101100005D9884E68093F701101611063CF081E0AB
:1011100090E0F6019383828310E000E0C801DF9144
:10112000CF911F910F91FF90EF90DF90CF90BF90E4
:10113000AF909F908F9008952D9A0895BC0190E0F4
:1011400080E00C94E4078FB18095807F669B886077
:101150001C9B8460089580389105B4F5480F592F81
:10116000511D4138510514F040E850E0481BFB0187
:1011700077FD379633E0F595E7953A95E1F7F695E3
:10118000FE2FEE27F795E795E80FF91FE95FFD4F72
:101190006770772781E090E001C0880F6A95EAF7D1
:1011A000382F213041F4415078F08191DF011197BF
:1011B000832B8C93F8CF8095415030F09191DF01D3
:1011C000119798239C93F8CF089580E0E7E0F2E030
:1011D00081118FEF002481938193819381930394F4
:1011E000D1F71092D8011092D7011092DA01109223
:1011F000D90108959091E901982329F49091EA0189
:10120000982381E009F480E0089580E00C94B00414
:101210001F93CF93DF93DC0130E020E050E040E00B
:1012200011E0C1E0D0E02617370791F114968C91B8
:101230001497811115C014961C93149712968D91D2
:101240009C911397ED91FC911197E80FF91FE49190
:101250001596EC931597019613969C938E9312977F
:1012600014969C91149715968C911597892349F0A3
:10127000FE01022E02C0EE0FFF1F0A94E2F74E2B72
:101280005F2B990F14969C9314972F5F3F4FCBCFF2
:10129000CA01DF91CF911F91089580389105B8F46C
:1012A00060347105A0F420E191E061FD94E060FDFF
:1012B000990F62FD9295687F269FD0011124A80F97
:1012C000A95FBD4F8C9140FF03C0892B8C9308957B
:1012D00090958923FBCFAF92BF92CF92DF92EF928E
:1012E000FF920F931F93CF93DF935B01EC016C018F
:1012F000C40ED11C8B01020F111DCC15DD05ACF401
:101300007501C8010134110514F080E490E0E8167D
:10131000F9064CF440E0B701CE010E944D098FEF71
:10132000E81AF80AEECF2196E8CFDF91CF911F910E
:101330000F91FF90EF90DF90CF90BF90AF90089506
:10134000FF920F931F93CF93DF93EC01F62E262F7E
:101350004FE065E370E00E94AB082F2D4FE06FE394
:1013600070E0CE010E94AB0805E310E04F2DB801FC
:10137000CE010E944D090F5F1F4F00341105B1F7D8
:101380002E9605E310E04F2DB801CE010E944D09C5
:101390000F5F1F4F00341105B1F7DF91CF911F91FF
:1013A0000F91FF9008952F923F924F925F926F920C
:1013B0007F928F929F92AF92BF92CF92DF92EF92E5
:1013C000FF920F931F93CF93DF9300D000D000D0F4
:1013D0001F92CDB7DEB76D30D9F03090010140904B
:1013E000D7015090D801832D90E09F838E836A307F
:1013F00051F51092DA011092D90123E0880F991F5C
:101400002A95E1F7480E591E5092D8014092D70113
:1014100081E090E027960FB6F894DEBF0FBECDBFF7
:10142000DF91CF911F910F91FF90EF90DF90CF90C0
:10143000BF90AF909F908F907F906F905F904F90F4
:101440003F902F900895A090D901B090DA0195E0D7
:10145000699FB0011124FB01E653FF4F3F01650175
:10146000212CF5E02F1629F1C3010196F301F49127
:10147000F9833C01420128E02A83898181708D83B0
:1014800010E000E00315D0F4F801EC0DFD1DFC8325
:10149000EB83F12CE12CE31470F4B4016E0D7F1D8D
:1014A0004D818B819C810E944D09FFEFEF1AFF0A4D
:1014B000F2CF1982DFCF0F5F1F4FE4CF298126952E
:1014C00029838A8181508A83EE81FF818E0E9F1E3F
:1014D0008111D3CF2394CE0EDF1EF6E02F12C1CFA1
:1014E000C501329C800D911D11249093DA018093E7
:1014F000D9018ECFF999FECF92BD81BDF89A80B502
:101500000895F999FECF92BD81BDF89A20B52617AE
:1015100039F0F999FECF92BD81BD60BDFA9AF99A72
:101520000895E091CB01F0E0EE0FFF1FE353FE4F73
:1015300080819181843691051CF18091C90190913F
:10154000CA012091C7013091C8018217930749F45D
:1015500097FD0196959587959093CA018093C9014F
:101560000895AC01421B530B141615068CF3C901E8
:1015700037FD0196959587959093C8018093C70193
:101580000895089590E080E008958F929F92AF9221
:10159000BF920F931F93CF93DF93CDB7DEB7A19781
:1015A0000FB6F894DEBF0FBECDBF19A2423008F4CB
:1015B0004AE08E010F5D1F4F842E912CB12CA12C7F
:1015C000A50194010E944D1BE62FB901CA01EA3022
:1015D00044F5E05DD801EE938D01232B242B252BC0
:1015E00079F790E080E0109769F0FD01019000200C
:1015F000E9F73197AF014A1B5B0BBD0187E596E028
:101600000E949207A1960FB6F894DEBF0FBECDBF21
:10161000DF91CF911F910F91BF90AF909F908F90CE
:101620000895E95CD7CFFC0101900020E9F73197DC
:10163000AF01481B590BBC0187E596E00C9492075B
:10164000CF92DF92EF92FF92CF93DF9397FF1BC071
:101650006B017C016DE287E596E00E94D309EC0105
:1016600066277727CB016C197D098E099F094AE00F
:101670000E94C50A8C0F9D1FDF91CF91FF90EF90C4
:10168000DF90CF9008954AE0DF91CF91FF90EF90E7
:10169000DF90CF900C94C50ABC01990F880B990B71
:1016A0000C94200B0C94051BCF92DF92EF92FF92CB
:1016B0006B017C01C114D104E104F10441F00E94EA
:1016C000AD1AA70196010E941B1B6B017C01C7018B
:1016D000B601FF90EF90DF90CF9008954F925F9208
:1016E0006F927F928F929F92AF92BF92CF92DF9232
:1016F000EF92FF921F93CF93DF9300D000D000D0E2
:10170000CDB7DEB7162FBC01990F880B990B0E943D
:101710009A1C2CEB36E940E15DE30E94651D4B010C
:101720005C010E94D21D6B017C01C092A201D0928B
:10173000A301E092A401F092A501C501B4010E94A9
:10174000EB1B2B013C0140929E0150929F01609245
:10175000A0017092A10124E130E03E832D832D8110
:101760003E81B901330F880B990B0E949A1C4B01E3
:101770005C01AC019B01C301B2010E94651D20E028
:1017800030E040EC51E40E947F1B0E94621C6983A0
:101790007A838B839C83A5019401C701B6010E94C3
:1017A000651D20E030E040E852E40E947F1B0E946B
:1017B000621CCB01412F69817A810E944D098D8184
:1017C0009E8101969E838D83489749F626960FB693
:1017D000F894DEBF0FBECDBFDF91CF911F91FF9078
:1017E000EF90DF90CF90BF90AF909F908F907F90C1
:1017F0006F905F904F9008951F920F920FB60F92C7
:1018000011248F939F938091E1009091E100937F49
:101810009093E10083FF0FC01092E90091E0909354
:10182000EB001092EC0092E39093ED001092060210
:1018300098E09093F00082FF22C093E09093E9003B
:101840009091F200992319F09AE39093E800909117
:10185000F701992341F09091F70191509093F7018E
:10186000911101C05D9A90910502992341F09091E8
:101870000502915090930502911101C0289A84FFAE
:1018800018C08091E2008E7E81608093E20080919A
:10189000E1008F7E8093E1008091F8018E7E80616F
:1018A0008093F8019F918F910F900FBE0F901F9022
:1018B000189580FFF7CF8091E2008E7E8061809343
:1018C000E2008091E1008E7E8093E1008091F8013A
:1018D0008E7E8160E5CF1F920F920FB60F9211247A
:1018E000CF92DF92EF92FF920F931F932F933F932C
:1018F0004F935F936F937F938F939F93AF93BF9318
:10190000EF93FF93CF93DF93CDB7DEB76C97DEBF36
:10191000CDBF1092E9008091E80083FF25C068E008
:10192000CE0145960E94850782EF8093E8008D895D
:1019300087FF39C09091E80090FFFCCF982F9076F8
:1019400009F034C19E894F89588D2F89F88C9111E7
:1019500031C0803861F58091F6018093F1001092DA
:10196000F1008EEF8093E8006C960FB6F894DEBF1E
:101970000FBECDBFDF91CF91FF91EF91BF91AF919E
:101980009F918F917F916F915F914F913F912F9197
:101990001F910F91FF90EF90DF90CF900F900FBEAF
:1019A0000F901F9018959EEF9093E800C7CF10926C
:1019B000F100D5CF913059F48111D3CF4130510589
:1019C00081F68091F6018D7F8093F601CACF933026
:1019D00049F48111C6CF4130510519F68091F601C5
:1019E0008260F2CF953041F48091E80080FFFCCF17
:1019F00020682093E300B5CF963009F0A9C00B8D85
:101A00001C8D22E01092E9001092F4011092F30173
:101A1000F2122EC01092F2011092F1010E945407AE
:101A20001F8299E09983FA8291E09E8390EA9887D9
:101A30009AEF99872091F3013091F401275F3F4F8E
:101A40003C832B838D831092E9001092F401109255
:101A5000F3011093F2010093F10149E050E0BE015F
:101A60006F5F7F4F80E00E942E070E94540779CF5E
:101A70001093F2010093F1010E946B06DC011296B3
:101A80000D911C910115110509F451C1D801ED9179
:101A9000FC910480F581E02DBE016B5E7F4FC80193
:101AA0000995009709F03EC1F80100851185EACF3C
:101AB000F3E0FF120EC08F89882309F440C0823002
:101AC00061F440E860E189EF98E00E94E70E81113F
:101AD00048CF81E28093EB0047CF813029F440E882
:101AE0006BE08DEE98E0F1CF833099F70E946B06A2
:101AF000DC011296ED90FC908E010F5F1F4F680184
:101B0000E114F10479F0D701ED91FC910680F781A1
:101B1000E02DB801C7010995080F111DF701E084F8
:101B2000F184EECFD8011C92F60101900020E9F774
:101B30003197BF016C197D0940E0C601C6CF67ED42
:101B400078E0FB01449150E080E80E942E0709CF25
:101B5000973009F4BECF983021F481E08093F100F2
:101B600000CF993009F0FDCE837009F0B2CFE8E1E3
:101B7000F1E081E031E096E32191222371F080933E
:101B8000E9003093EB00DF0111972C912093EC00DA
:101B90009093ED008F5F873079F78EE78093EA00AE
:101BA0001092EA008F8980930602DBCE8B8D9C8D8C
:101BB0001092E9001092F4011092F3019093F20157
:101BC0008093F101898D811192C08E899D89913A0E
:101BD00049F4813209F07DCF47E050E066E071E0E2
:101BE00080E0B3CF913209F074CF833269F48F89EA
:101BF000988DB0E0A0E08093020190930301A09340
:101C00000401B0930501ADCE803269F48091E80003
:101C100082FFFCCF67E086E091E00E9485078BEFB2
:101C20008093E8009ECE823209F09BCE8F8980930C
:101C30000D01EEEFFFE7859194918B3F9C4D51F1A3
:101C4000E0E0F8E08091060190910701A091080181
:101C5000B0910901803B9440A105B105F1F4809158
:101C60000D0180FD1AC0EE3F8AE0F80789F587E78D
:101C700097E791838083809160008093F50188E1EC
:101C80009BE00FB6F894A895809360000FBE9093E8
:101C9000600067CEEEEFFAE0D5CF80819181873783
:101CA000974709F05ECEA895809160008861809387
:101CB00060008091F50180936000EE3F2AE0F2071A
:101CC00089F08091FE0A9091FF0A9183808349CE2A
:101CD000808191818737980751F29093FF0A809312
:101CE000FE0AC5CF1092FF0A1092FE0A3ACE0E9459
:101CF0006B06DC0112960D911C910115110509F47A
:101D0000E8CED801ED91FC910190F081E02DBE016B
:101D10006B5E7F4FC8010995811123CEF8010085C4
:101D20001185EBCF181619060CF41BCED2CEF1E0BC
:101D3000FF12BECE6BED78E004CF1F920F920FB66C
:101D40000F9211242F933F938F939F93AF93BF9341
:101D50008091AB019091AC01A091AD01B091AE0129
:101D60003091A60123E0230F2D3758F50196A11DD0
:101D7000B11D2093A6018093AB019093AC01A09379
:101D8000AD01B093AE018091A7019091A801A091FF
:101D9000A901B091AA010196A11DB11D8093A701CF
:101DA0009093A801A093A901B093AA01BF91AF910C
:101DB0009F918F913F912F910F900FBE0F901F9089
:101DC000189526E8230F0296A11DB11DD2CFEF92E0
:101DD000FF920F931F93CF93DF93F82E192FE62EC8
:101DE000042F81E0860F880F0E94000783E00E9485
:101DF0000007CF2DD12FEC0EFD2EF11CCE15DF05E7
:101E0000B9F007FF13C0FE0184910E940007182F4C
:101E100080E00E940007812321968111EFCFDF919E
:101E2000CF911F910F91FF90EF9008958881EDCF92
:101E300081E0F5CFE7E0F6E01382128288EE93E0CE
:101E4000A0E0B0E084839583A683B78382E291E02B
:101E5000918380838FEF9FEF95878487E7E5F6E096
:101E60001382128284E391E0918380830895CF935B
:101E7000DF93CDB7DEB728970FB6F894DEBF0FBE5D
:101E8000CDBF789484B5826084BD84B5816084BD03
:101E900085B5826085BD85B5816085BD80916E0008
:101EA000816080936E001092810080918100826039
:101EB0008093810080918100816080938100809176
:101EC0008000816080938000809191008260809387
:101ED00091008091910081608093910080919000A9
:101EE0008160809390008091C10084608093C100E4
:101EF0008091C10082608093C1008091C1008160A7
:101F00008093C1008091C30081608093C300809161
:101F1000C00082608093C0008091C2008160809385
:101F2000C20080917A00846080937A0080917A0068
:101F3000826080937A0080917A00816080937A0039
:101F400080917A00806880937A0010920602109245
:101F5000F6011092F8018091D70081608093D7003C
:101F600080EA8093D80089B5806189BD89B5826097
:101F700089BD09B400FEFDCF61E070E080E090E033
:101F80000E94E4078091D8008F7C80618093D80004
:101F90008091E000807F8093E0008091E1008E7E60
:101FA0008093E1008DE08093E200559A209A81ECC5
:101FB00080937C0085B1806F85B984B1877E84B9B8
:101FC00084B1876E84B95E9A5F988AB1806D8AB950
:101FD000769A6E9881B3806F81BB899880B38D703B
:101FE00080BB80E58CBD81E08DBD85E090E00E94E6
:101FF0009E085F9A85E090E00E949E085E985C983B
:10200000EAE7F6E084918EBD00000DB407FEFDCF37
:10201000319626E0E738F207A9F75C9A81E88093C9
:102020006400809165008160809365000E940509CD
:102030000E94A30887FF15C05C9885EA8EBD00004A
:102040000DB407FEFDCF5C9A2E982F982D988091A5
:10205000640080628093640081E083BF889513BE32
:10206000FCCF0E94A30882FF48C02D980E94A308BD
:1020700084788438E1F40E949C0888EC90E00E9407
:102080009E082F9882E090E00E94051B8F3F29F068
:102090006FEF82E090E00E940D1B84EF91E00E94C0
:1020A0009E082F9A0E94A30884788438D9F30E944E
:1020B000A30884718431E1F40E949C0888EC90E0CC
:1020C0000E949E082E9882E090E00E94051B8823C3
:1020D00029F060E082E090E00E940D1B84EF91E027
:1020E0000E949E082E9A0E94A30884718431D9F31D
:1020F00088EC90E00E949E08B4CF0E949C0882E089
:1021000090E00E94520B882309F47FC03E9A3F9AC8
:1021100081E090E00E94520B482F4470542E81FFC2
:1021200012C041112E9801EF1FEF88E0A82EB12CAC
:102130009CE6E92EF12C0E94A30886FF69C02E9A26
:102140002F9A0E949C0882E390E00E949E080E94C1
:10215000A308182F8111F7CF80E18093000181E05F
:10216000809301010E94E50887E896E09A838983BD
:102170001C821B821D821E8268E070E0CE010196E7
:102180000E94080901965C0168E070E0CE010196AA
:102190000E94080901967C0161E070E0CE01019681
:1021A0000E940809082F1A141B040CF038C11E14D1
:1021B0001F040CF034C16701F3E0D594C794FA957D
:1021C000E1F7F7E0EF22FF24EF2819F02FEFC21A12
:1021D000D20A55245394F12CE12C912C812C4424C7
:1021E00043948C149D040CF01AC166246394712CE2
:1021F00061E070E0CE0101960E940809892B09F088
:10220000D1C042E0640E711CF3CF3E983F9880CF5E
:10221000552029F00430110511F42E9A2F9881E0F1
:102220000E94B004980117FF04C022273327201B07
:10223000310B27703327C80117FD0796B3E095953A
:102240008795BA95E1F717FF05C00197F501E21BE5
:10225000F30B9F01BC017695762F662777956795DE
:10226000695F7D4FB0E0A0E01501221A330A8E3F6E
:10227000FFEF9F0709F446C048E550E0FD01EE5D21
:10228000F94F4F013B01F0E86F0E711C8F3F98072B
:10229000C9F0F401E41BF50B44906701C41AD50A98
:1022A000C60ED71EE42DF0E0022E02C0EE0FFF1F77
:1022B0000A94E2F7F887EF83F6014080FF814F2A06
:1022C000F601408221153105C9F0F401E41BF50B3C
:1022D00044906701C41AD50AC60CD71CE42DF0E05F
:1022E000022C02C0F595E7950A94E2F7F887EF8390
:1022F000F6014080FF814F2AF6014082415051098A
:1023000009F0C4CF0196A85ABF4F60587F4FA03B39
:10231000B10509F0ACCF0E9405098FE090E00E9462
:102320009E080F5F1F4F0931110509F004CF55209A
:1023300011F02F9A2D9880E991E00E949E080E944A
:102340009C0881E090E00E94520B80FFFCCE8AE066
:1023500090E00E94520B9FEF980F9E3F08F0F3CE43
:1023600022E330E03093DA012093D90128E330E012
:102370003093D8012093D7010BE010E0682F87E558
:1023800096E00E94D309C8010E94520B0F5F1F4FB5
:102390000131110599F70E94050988EE93E00E942A
:1023A0009E08D1CEB301CE0101960E940809019684
:1023B00030E020E02817390780F501111529652D37
:1023C000660F41F5A4014F5F5F4F4930510588F416
:1023D00070E8E716F1046CF4F401F695FE2FEE2791
:1023E000F795E795EE0DFF1DE95FFD4F7081172B07
:1023F0001083EFEFEE1AFE0A55245394EA14FB04FF
:102400002CF04A0155245394F12CE12C2F5F3F4FBF
:10241000162FD0CF562E612FF9CF0425E2CE85E0BE
:1024200090E09093DA018093D90108E310E01093D3
:10243000D8010093D7018CE391E00E94130B81E156
:1024400090E09093DA018093D9011093D801009322
:10245000D7018FE391E00E94130B8EE290E09093FE
:10246000DA018093D9011093D8010093D70189E94B
:1024700091E00E94130B88E590E09093DA0180933D
:10248000D9011093D8010093D70184E491E00E9410
:10249000130B84E690E09093DA018093D9011093B6
:1024A000D8010093D70187E491E00E94130B0E94AA
:1024B000050940E2E42EF12C0E94A30883FD58C0D8
:1024C0000E94A30882FF22C028E048E767E370E08B
:1024D00085E090E00E946B091092DA011092D90118
:1024E0001093D8010093D7018CE491E00E94130B64
:1024F000F092DA01E092D9011093D8010093D7014C
:1025000082E591E00E94130B0E940509809164000E
:102510008E7F8093640080917A00806480937A003B
:1025200080917A0086FDFCCFC0907800D090790031
:102530000E94BF07AB01BC01C601B0E0A0E0DC0116
:10254000992788275C016D01A40EB51EC61ED71EF3
:10255000C601B501209164002160209364006115DB
:1025600071058105910509F4A7CF0E94FC1AA4CF3B
:102570001092F0019AE0C92ED12C27E3A22EB12CA3
:102580008FB7F8944091AB015091AC016091AD01CF
:102590007091AE018FBF8091AF01882349F01092F6
:1025A000AF0180E090E0892B59F30E940000E8CF52
:1025B0008091B001242F281B822F909100012917B0
:1025C00040F48F5F891768F781E083BF889513BE59
:1025D000E8CF81E08093AF014093B0018090ED019E
:1025E0009090EE014FEF841A940A9092EE0180923F
:1025F000ED018091EA018093E9010E94A308809394
:10260000EA01E091F001E73008F093C0F0E0E55F07
:10261000FC4E0C94231E4F1312139214FC15281712
:10262000AA17711884E690E09093CE018093CD01B3
:1026300085E690E09093D0018093CF0186E690E00C
:102640009093D2018093D10187E690E09093D401DA
:102650008093D30188E690E09093D6018093D501D2
:1026600064E070E080E090E00E94540B6093CC0145
:1026700065E070E080E090E00E94540B6093CB0135
:102680008091CC01813009F48CC008F455C08230AF
:1026900009F4C7C0833009F4FEC082E048C00E943C
:1026A000E50801E010E061E070E0C8010E946E0BF7
:1026B0000F5F1F4F023B1105B1F71092E801109216
:1026C000DA011092D9011092D8011092D70183E655
:1026D00091E00E94130B89E690E09093DA018093D9
:1026E000D9011092D8011092D70188E691E00E949A
:1026F000130B1092E4011092E5011092E601109282
:10270000E7011092E0011092E1011092E2011092B3
:10271000E30181E090E09093DF018093DE019093EC
:10272000DD018093DC011092EF011092DB018093B8
:10273000F0010E94050935CF62E670E080E090E08C
:102740000E94540B6E5F7F4F8F4F9F4F7093CA0153
:102750006093C90162E670E080E090E00E94540B53
:102760006E5F7F4F8F4F9F4F7093C8016093C7017B
:102770000091C9011091CA018091C7019091C801CF
:10278000080F191FE091CB01F0E0EE0FFF1FE3539C
:10279000FE4F118300830E94910A0436110544F70D
:1027A0007CCF62E670E080E090E00E94540B6E5FA8
:1027B0007F4F8F4F9F4F7093CA016093C90162E6AC
:1027C00070E080E090E00E94540BDC01CB010296A7
:1027D000A11DB11D9093C8018093C7012091C9012B
:1027E0003091CA012817390744F43093C801209367
:1027F000C7019093CA018093C901E091CB01F0E039
:10280000EE0FFF1FE353FE4F8091C9019091CA0163
:102810002091C7013091C801821B930B9183808363
:102820003CCF62E670E080E090E00E94540B6E5F67
:102830007F4F8F4F9F4F7093CA016093C90162E62B
:1028400070E080E090E00E94540B6E5F7F4F8F4FEE
:102850009F4F7093C8016093C7012091C9013091C7
:10286000CA018091C7019091C801289F8001299FCA
:10287000100D389F100D1124E091CB01F0E0EE0F08
:10288000FF1FE353FE4F118300830E94910A043619
:1028900011051CF702CF62E670E080E090E00E9434
:1028A000540B6E5F7F4F8F4F9F4F7093CA016093A1
:1028B000C90162E670E080E090E00E94540B6E5F18
:1028C0007F4F8F4F9F4F7093C8016093C701009156
:1028D000CB0110E02091C9013091CA018091C7015C
:1028E0009091C801289F7001299FF00C389FF00C2F
:1028F0001124000F111F03531E4FF801F182E082D3
:102900000E94910AF4E6EF16F1040CF78091C901D8
:102910009091CA01F80191838083F092CA01E092FC
:10292000C901BBCE0DEC11E0E12CFF24F3948091A2
:10293000CB018E1509F4F9C01092C60169E070E070
:1029400080E090E00E94540B69307105810591058B
:1029500008F095C0FB01E155FB4E0C94231EB81402
:10296000CE14E914FD14111527159D15BB15D715A7
:10297000E091CB01F0E0EE0FFF1FE353FE4F6081CB
:102980007181072E000C880B990B0E949A1C2AE972
:1029900039E949E95FE30E94651D15C0E091CB016B
:1029A000F0E0EE0FFF1FE353FE4F60817181072EB1
:1029B000000C880B990B0E949A1C2AE939E949E915
:1029C0005FE30E94F01B0E94621CF8017183608328
:1029D00056C0E091CB01F0E0EE0FFF1FE353FE4F36
:1029E00060817181072E000C880B990B0E949A1C44
:1029F00020E030E040EC5FE3CECFE091CB01F0E0AF
:102A0000EE0FFF1FE353FE4F60817181072E000C14
:102A1000880B990B0E949A1C20E030E040EC5FE3A9
:102A2000D0CFE091CB01F0E0EE0FFF1FE353FE4F5C
:102A3000808091806AE070E080E090E00E94540B1A
:102A40006F5F7F4F8F4F9F4F680D791DBECFE09115
:102A5000CB01F0E0EE0FFF1FE353FE4F808091802B
:102A60006AE070E080E090E00E94540B6F5F7F4F5F
:102A70008F4F9F4F861A970AF80191828082F80142
:102A8000808191818436910510F0F092C6012091E9
:102A9000CC01213009F4A8C008F494C0223009F414
:102AA00091C0233009F4A0C0E091CD01F091CE0196
:102AB0006091CF017091D0014091D1015091D2012C
:102AC000E617F70719F04E175F0711F4F092C601E9
:102AD0002091D3013091D4018091D5019091D601FC
:102AE000E217F30719F0E817F90711F4F092C6019D
:102AF0004617570719F06217730711F4F092C601D1
:102B00006817790719F04217530711F4F092C601BC
:102B10004817590719F02817390711F4F092C60120
:102B20008091C601813009F407CFE3940E5F1F4FF7
:102B3000F5E0EF12FCCE83E0FACDE091CB01F0E0BE
:102B4000EE0FFF1FE353FE4F8080918063E070E043
:102B500080E090E00E94540BAB01BC014F5F5F4FDF
:102B60006F4F7F4FFAE0F49FC001F59F900D112445
:102B7000880E991E81CFE091CB01F0E0EE0FFF1F90
:102B8000E353FE4F8080918063E070E080E090E04E
:102B90000E94540BAB01BC014F5F5F4F6F4F7F4FE3
:102BA00026EF2403C001259F900D1124E1CF63E699
:102BB00070E080E090E00E94540B6F5F7F4F8F4F7A
:102BC0009F4F03CF2091C9013091CA01821793070B
:102BD00044F02091C7013091C801821793070CF08F
:102BE00063CFF092C60160CF2091C9013091CA0134
:102BF00028173907B4F358CF28E04CE06AE070E0BA
:102C00008CE390E00E946B0928E044E164E170E00D
:102C100084E390E00E946B0928E04CE060E270E001
:102C20008CE390E00E946B092BE040E665E370E0E6
:102C300080E190E00E946B09F3E78F2EF8E09F2E71
:102C4000F4012491A4E74A2EA8E05A2EF20104913F
:102C5000BBEFEB2E50E040E065E778E08AE090E0E3
:102C60000E94BF04F4012491F201049150E040E07D
:102C700065E778E086E690E00E94BF048091C90194
:102C80009091CA018A3091050CF4C6C01092C5011A
:102C90002091C50130E0245C3F4F3093DA0120934E
:102CA000D901D092D801C092D7010E944C0B8091DB
:102CB000C7019091C8018A3091050CF4B1C01092FF
:102CC000C5012091C50130E0245C3F4F3093DA010B
:102CD0002093D90104E110E01093D8010093D701AB
:102CE0000E944C0B84E390E09093DA018093D90129
:102CF0001093D8010093D701E091CC01F0E0EE5E93
:102D0000FE4F608187E596E00E94D30921E044E10F
:102D10006DE170E084E390E00E94AB088091CD010A
:102D20009091CE018A3091050CF47EC01092C501BD
:102D30002091C50130E02C5E3F4F3093DA012093A3
:102D4000D901B092D801A092D7010E944C0B80917A
:102D5000CF019091D0018A3091050CF469C0109296
:102D6000C5012091C50130E0285D3F4F3093DA0165
:102D70002093D901B092D801A092D7010E944C0BA8
:102D80008091D1019091D2018A3091050CF454C008
:102D90001092C5012091C50130E0245C3F4F309373
:102DA000DA012093D901B092D801A092D7010E94F4
:102DB0004C0B8091D3019091D4018A3091050CF491
:102DC0003FC01092C5012091C50130E0205B3F4F0C
:102DD0003093DA012093D901B092D801A092D701A3
:102DE0000E944C0B8091D5019091D6018A309105BB
:102DF0005CF11092C5012091C50130E02C593F4F84
:102E00003093DA012093D901B092D801A092D70172
:102E10000E944C0B84E08BCC26E02093C50138CF78
:102E200026E02093C5014DCF26E02093C50180CF39
:102E300026E02093C50195CF26E02093C501AACFB7
:102E400026E02093C501BFCF26E02093C501D3CF54
:102E50008091E801E4E0FE2E81115EC0C401837020
:102E60009927892BA9F40091DE011091DF0170E010
:102E700060E0C8010E946E0B0F5F1F4F1093DF01CF
:102E80000093DE01023B11051CF086E08093F00107
:102E900080E20E94FA08882339F08091EF01815086
:102EA00008F453C08093EF0180E40E94FA0888235D
:102EB00041F08091EF018F5F853009F448C0809325
:102EC000EF0184E00E94FA08811105C080E80E94A9
:102ED000FA08882339F09092EC018092EB0185E0AA
:102EE0008093F0018091DB0114E1819FC0011124E6
:102EF00060E042960E94A0090091EF01019FC0018D
:102F0000112461E042960E94A0090093DB0111CCDC
:102F1000FA94FF2009F4BCCF0091DE011091DF018B
:102F2000015011091093DF010093DE0161E070E0B0
:102F3000C8010E946E0B8091DC019091DD01801729
:102F4000910734F31092E801A3CF84E0ABCF109245
:102F5000EF01B7CFF090EF011091CB01F11232C029
:102F600053E7452E58E0552EF201249164E7262EB2
:102F700068E0362EF101049172E0E72E50E040E067
:102F800065E778E08AE090E00E94BF04F2012491B6
:102F9000F101049150E040E065E778E086E690E0DA
:102FA0000E94BF0481E08093E8018091DE0190914E
:102FB000DF0189559109181619066CF59093DD010A
:102FC0008093DC018091EB019091EC01449688168E
:102FD000990640F5E12FF0E0EE0FFF1FE353FE4F9F
:102FE000808191818A309105CCF01092C5012091A9
:102FF000C50130E0245C3F4F3093DA012093D901C2
:1030000020E230E03093D8012093D7010E944C0B8E
:103010000E9405098ECB81E090E0D0CF26E020937E
:10302000C501E5CF6091E0017091E1018091E2017D
:103030009091E3016F5F7F4F8F4F9F4F6093E0014F
:103040007093E1018093E2019093E301F11214C0C7
:103050000091E4011091E5012091E6013091E70132
:103060000F5F1F4F2F4F3F4F0093E4011093E50177
:103070002093E6013093E70125E030E03093DA0158
:103080002093D901D092D801C092D7010E94200B81
:103090008EE690E09093DA018093D901D092D80126
:1030A000C092D7016091E4017091E5018091E60141
:1030B0009091E7010E94200B0E94050981E0809316
:1030C000F0018091E0019091E101A091E201B091C5
:1030D000E301873E9340A105B1050CF42ACB86E0BD
:1030E00026CB6090E0017090E1018090E201909029
:1030F000E30116141704180419040CF452C11092B9
:10310000C1011092C2011092C3011092C40180EF5C
:1031100091E00E947A0A863409F05CC181EF91E067
:103120000E947A0A863509F055C182EF91E00E942B
:103130007A0A282E83EF91E00E947A0A312C322CF1
:103140002224032C000C44085508280E311C411C75
:10315000511C2092B9013092BA014092BB015092A9
:10316000BC0184EF91E00E947A0A082F10E01093CE
:10317000C0010093BF0185EF91E00E947A0A282FD9
:1031800030E03093BE012093BD01302F2227032E63
:10319000000C440B550B280F311D411D511D209370
:1031A000B5013093B6014093B7015093B8011214A2
:1031B0001304140415040CF43CC11092B1011092D4
:1031C000B2011092B3011092B4018091B9019091B3
:1031D000BA01A091BB01B091BC01681679068A06BC
:1031E0009B0609F037C14091E4015091E5016091DF
:1031F000E6017091E7018091B5019091B601A0912F
:10320000B701B091B80184179507A607B7070CF46A
:1032100027C10E94E50882E080930101D092DA0183
:10322000C092D9014CE150E05093D8014093D701AE
:103230008DE691E00E94130B81E0809301011092D2
:10324000DA011092D9011092D8011092D70187E7C4
:1032500091E00E94130B6091E0017091E101809177
:10326000E2019091E3010E94200B85E390E09093AE
:10327000DA018093D9011092D8011092D7018DE71D
:1032800091E00E94130B6091E4017091E50180913F
:10329000E6019091E7010E94200BE9E6F0E0F0934F
:1032A000DA01E093D9011092D8011092D701609110
:1032B000C1017091C2018091C3019091C4010E942B
:1032C000200B83E891E00E94130B8091B90190914B
:1032D000BA01A091BB01B091BC01892B8A2B8B2B29
:1032E00009F448C04CE050E05093DA014093D90112
:1032F000D092D801C092D70185E891E00E94130BCB
:103300006091B9017091BA018091BB019091BC01AB
:103310000E94200B85E390E09093DA018093D9011D
:10332000D092D801C092D7018DE791E00E94130B93
:103330006091B5017091B6018091B7019091B8018B
:103340000E94200BE9E6F0E0F093DA01E093D90166
:10335000D092D801C092D7016091B1017091B201B1
:103360008091B3019091B4010E94200B83E891E019
:103370000E94130B44E050E05093DA014093D901CE
:10338000B092D801A092D70189E891E00E94130B76
:1033900088E00E94FA08882309F4CBC91092F00152
:1033A000C8C92091E4013091E5014091E6015091B6
:1033B000E701A4E6B0E00E943A1BA40193010E9439
:1033C0001B1B2093C1013093C2014093C301509352
:1033D000C4019DCE66E480EF91E00E94810A66E51B
:1033E00081EF91E00E94810A60E082EF91E00E940B
:1033F000810A60E083EF91E00E94810A60E084EF3F
:1034000091E00E94810A60E085EF91E00E94810ACC
:103410001092B9011092BA011092BB011092BC0136
:103420001092B5011092B6011092B7011092B80136
:10343000C4CEA4E6B0E00E943A1BA20191010E9412
:103440001B1B2093B1013093B2014093B301509301
:10345000B401BBCE86159705A805B9050CF0D9CEE9
:10346000992797FC9A95892D782D672D82EF91E009
:103470000E94810A662D83EF91E00E94810A2090CC
:10348000E4013090E5014090E6015090E701992772
:1034900057FC9A95852D742D632D7093C001609310
:1034A000BF01910133273093BE012093BD0184EF0A
:1034B00091E00E94810A622D85EF91E00E94810ACD
:1034C000A8CE8F929F92AF92BF92CF92DF92EF924F
:1034D000FF92CF93DF93EC01688179818A819B8190
:1034E000611571058105910521F464E279ED8BE5A3
:1034F00097E02DE133EF41E050E00E941B1B4901B2
:103500005A019B01AC01A7EAB1E40E943A1B6B018E
:103510007C01ACEEB4EFA50194010E94481BC60EDD
:10352000D71EE81EF91EF7FE06C081E0C81AD108B2
:10353000E10880E8F80AC882D982EA82FB82C701E2
:10354000B6019F77DF91CF91FF90EF90DF90CF9002
:10355000BF90AF909F908F9008958F929F92AF925F
:10356000BF92CF92DF92EF92FF9260910E01709125
:103570000F01809110019091110161157105810574
:10358000910521F464E279ED8BE597E02DE133EFCD
:1035900041E050E00E941B1B49015A019B01AC0114
:1035A000A7EAB1E40E943A1B6B017C01ACEEB4EFD8
:1035B000A50194010E94481BC60ED71EE81EF91EE5
:1035C000F7FE06C081E0C81AD108E10880E8F80AD1
:1035D000C0920E01D0920F01E0921001F092110101
:1035E000C701B6019F77FF90EF90DF90CF90BF901B
:1035F000AF909F908F90089560930E0170930F018C
:1036000080931001909311010895F999FECF92BD16
:1036100081BDF89A992780B50895262FF999FECF94
:103620001FBA92BD81BD20BD0FB6F894FA9AF99ADF
:103630000FBE01960895052E97FB1EF400940E947C
:10364000321B57FD07D00E944D1B07FC03D04EF4E0
:103650000C94321B50954095309521953F4F4F4F1C
:103660005F4F089590958095709561957F4F8F4F2E
:103670009F4F08950E946F1BA59F900DB49F900DC2
:10368000A49F800D911D11240895B7FF0C943A1B3F
:103690000E943A1B821B930B0895A1E21A2EAA1BCB
:1036A000BB1BFD010DC0AA1FBB1FEE1FFF1FA217F2
:1036B000B307E407F50720F0A21BB30BE40BF50BEF
:1036C000661F771F881F991F1A9469F76095709578
:1036D000809590959B01AC01BD01CF010895A29FFB
:1036E000B001B39FC001A39F700D811D1124911DD6
:1036F000B29F700D811D1124911D08955058BB2754
:10370000AA270E94961B0C94171D0E94DE1C38F0FD
:103710000E94E51C20F039F49F3F19F426F40C9424
:10372000DB1C0EF4E095E7FB0C94D51CE92F0E94FE
:103730003C1D58F3BA17620773078407950720F0FA
:1037400079F4A6F50C945E1D0EF4E0950B2EBA2FBD
:10375000A02D0B01B90190010C01CA01A001112497
:10376000FF27591B99F0593F50F4503E68F11A1643
:10377000F040A22F232F342F4427585FF3CF4695D4
:1037800037952795A795F0405395C9F77EF41F16F6
:10379000BA0B620B730B840BBAF09150A1F0FF0FC0
:1037A000BB1F661F771F881FC2F70EC0BA0F621FAC
:1037B000731F841F48F4879577956795B795F7959C
:1037C0009E3F08F0B0CF9395880F08F09927EE0F31
:1037D0009795879508950E94EE1CE3950C94281DFB
:1037E0000E94041C0C94171D0E94E51C58F00E94B6
:1037F000DE1C40F029F45F3F29F00C94D51C5111D8
:103800000C945F1D0C94DB1C0E943C1D68F39923F3
:10381000B1F3552391F3951B550BBB27AA276217CC
:103820007307840738F09F5F5F4F220F331F441FD9
:10383000AA1FA9F335D00E2E3AF0E0E832D091500D
:103840005040E695001CCAF72BD0FE2F29D0660FFA
:10385000771F881FBB1F261737074807AB07B0E83D
:1038600009F0BB0B802DBF01FF2793585F4F3AF043
:103870009E3F510578F00C94D51C0C945F1D5F3F62
:10388000E4F3983ED4F3869577956795B795F795C9
:103890009F5FC9F7880F911D9695879597F90895B1
:1038A000E1E0660F771F881FBB1F6217730784074D
:1038B000BA0720F0621B730B840BBA0BEE1F88F75C
:1038C000E09508950E94691C6894B1110C945F1DE5
:1038D00008950E94441D88F09F5798F0B92F9927AA
:1038E000B751B0F0E1F0660F771F881F991F1AF0EB
:1038F000BA95C9F714C0B13091F00E945E1DB1E0D5
:1039000008950C945E1D672F782F8827B85F39F0D3
:10391000B93FCCF3869577956795B395D9F73EF483
:1039200090958095709561957F4F8F4F9F4F08952B
:10393000E89409C097FB3EF4909580957095619549
:103940007F4F8F4F9F4F9923A9F0F92F96E9BB27FF
:103950009395F695879577956795B795F111F8CF7B
:10396000FAF4BB0F11F460FF1BC06F5F7F4F8F4FE6
:103970009F4F16C0882311F096E911C0772321F0DC
:103980009EE8872F762F05C0662371F096E8862F74
:1039900070E060E02AF09A95660F771F881FDAF7CB
:1039A000880F9695879597F9089597F99F6780E80E
:1039B00070E060E008959FEF80EC089500240A9481
:1039C0001616170618060906089500240A941216FA
:1039D00013061406050608950C94DB1C0E94441D72
:1039E000D8F3E894E0E0BB279F57F0F02AED3FE0E2
:1039F00049EC06C0EE0FBB0F661F771F881F28F02B
:103A0000B23A62077307840728F0B25A620B730B4D
:103A1000840BE3959A9572F7803830F49A95BB0F32
:103A2000661F771F881FD2F790480C94DC1D092E63
:103A30000394000C11F4882352F0BB0F40F4BF2B09
:103A400011F460FF04C06F5F7F4F8F4F9F4F089549
:103A5000EF93E0FF07C0A2EA2AED3FE049EC5FEBFD
:103A60000E94961B0E94171D0F90039401FC905812
:103A7000ECEAF0E00C94E81D57FD9058440F551FF8
:103A800059F05F3F71F04795880F97FB991F61F0E0
:103A90009F3F79F087950895121613061406551F57
:103AA000F2CF4695F1DF08C0161617061806991FC3
:103AB000F1CF86957105610508940895E894BB27B8
:103AC00066277727CB0197F908950E94781D0C94FB
:103AD000171D0E94DE1C38F00E94E51C20F0952383
:103AE00011F00C94D51C0C94DB1C11240C945F1D5C
:103AF0000E943C1D70F3959FC1F3950F50E0551F38
:103B0000629FF001729FBB27F00DB11D639FAA2732
:103B1000F00DB11DAA1F649F6627B00DA11D661F81
:103B2000829F2227B00DA11D621F739FB00DA11DA2
:103B3000621F839FA00D611D221F749F3327A00D5C
:103B4000611D231F849F600D211D822F762F6A2FF8
:103B500011249F5750409AF0F1F088234AF0EE0F5D
:103B6000FF1FBB1F661F771F881F91505040A9F78A
:103B70009E3F510580F00C94D51C0C945F1D5F3F57
:103B8000E4F3983ED4F3869577956795B795F795C6
:103B9000E7959F5FC1F7FE2B880F911D969587953E
:103BA00097F908959F930E94EE1C0F9007FCEE5F1B
:103BB0000C94281D9F3F31F0915020F48795779504
:103BC0006795B795880F911D9695879597F90895F4
:103BD0009F938F937F936F93FF93EF939B01AC0120
:103BE0000E94651DEF91FF910E94FC1D2F913F9156
:103BF0004F915F910C94651DDF93CF931F930F93AB
:103C0000FF92EF92DF927B018C01689406C0DA2E5E
:103C1000EF010E94781DFE01E894A5912591359150
:103C200045915591A6F3EF010E94961BFE01970165
:103C3000A801DA9469F7DF90EF90FF900F911F9140
:103C4000CF91DF910895EE0FFF1F0590F491E02DC5
:063C50000994F894FFCF77
:103C56001001FFFFFFFF00E100000000000001006F
:103C660000002B2D782F0000C1808100000000008D
:103C760000007F061708A0069506E606A406C206FB
:103C860000000000D3099207C20AC10A413A005057
:103C96006C617900423A00436F646500436F646566
:103CA6003A004672616E6B2076616E20646520561E
:103CB600656E0053756D7300476F6F640047616DE5
:103CC60065206F7665720053756D733A00476F6FA6
:103CD600643A00250048693A0050726573732041C2
:0E3CE60020666F72206E65772067616D650045
:00000001FF
